{
  "contractName": "TicTacToe",
  "abi": [
    {
      "constant": true,
      "inputs": [],
      "name": "getBoard",
      "outputs": [
        {
          "name": "",
          "type": "address[3][3]"
        }
      ],
      "payable": false,
      "stateMutability": "view",
      "type": "function"
    },
    {
      "constant": true,
      "inputs": [],
      "name": "player2",
      "outputs": [
        {
          "name": "",
          "type": "address"
        }
      ],
      "payable": false,
      "stateMutability": "view",
      "type": "function"
    },
    {
      "constant": false,
      "inputs": [
        {
          "name": "x",
          "type": "uint8"
        },
        {
          "name": "y",
          "type": "uint8"
        }
      ],
      "name": "setStone",
      "outputs": [],
      "payable": false,
      "stateMutability": "nonpayable",
      "type": "function"
    },
    {
      "constant": true,
      "inputs": [],
      "name": "boardSize",
      "outputs": [
        {
          "name": "",
          "type": "uint8"
        }
      ],
      "payable": false,
      "stateMutability": "view",
      "type": "function"
    },
    {
      "constant": true,
      "inputs": [],
      "name": "gameCost",
      "outputs": [
        {
          "name": "",
          "type": "uint256"
        }
      ],
      "payable": false,
      "stateMutability": "view",
      "type": "function"
    },
    {
      "constant": true,
      "inputs": [],
      "name": "player1",
      "outputs": [
        {
          "name": "",
          "type": "address"
        }
      ],
      "payable": false,
      "stateMutability": "view",
      "type": "function"
    },
    {
      "constant": false,
      "inputs": [],
      "name": "joinGame",
      "outputs": [],
      "payable": true,
      "stateMutability": "payable",
      "type": "function"
    },
    {
      "constant": false,
      "inputs": [],
      "name": "emergecyCashout",
      "outputs": [],
      "payable": false,
      "stateMutability": "nonpayable",
      "type": "function"
    },
    {
      "constant": false,
      "inputs": [],
      "name": "withdrawWin",
      "outputs": [],
      "payable": false,
      "stateMutability": "nonpayable",
      "type": "function"
    },
    {
      "inputs": [],
      "payable": true,
      "stateMutability": "payable",
      "type": "constructor"
    },
    {
      "anonymous": false,
      "inputs": [
        {
          "indexed": false,
          "name": "player",
          "type": "address"
        }
      ],
      "name": "PlayerJoined",
      "type": "event"
    },
    {
      "anonymous": false,
      "inputs": [
        {
          "indexed": false,
          "name": "player",
          "type": "address"
        }
      ],
      "name": "NextPlayer",
      "type": "event"
    },
    {
      "anonymous": false,
      "inputs": [
        {
          "indexed": false,
          "name": "winner",
          "type": "address"
        }
      ],
      "name": "GameOverWithWin",
      "type": "event"
    },
    {
      "anonymous": false,
      "inputs": [],
      "name": "GameOverWithDraw",
      "type": "event"
    },
    {
      "anonymous": false,
      "inputs": [
        {
          "indexed": false,
          "name": "receiver",
          "type": "address"
        },
        {
          "indexed": false,
          "name": "amountInWei",
          "type": "uint256"
        }
      ],
      "name": "PayoutSuccess",
      "type": "event"
    }
  ],
  "bytecode": "0x606060405260036000806101000a81548160ff021916908360ff16021790555060b4600e5533600a60006101000a81548173ffffffffffffffffffffffffffffffffffffffff021916908373ffffffffffffffffffffffffffffffffffffffff16021790555067016345785d8a00003414151561007b57600080fd5b600e544201600f81905550611697806100956000396000f300606060405260043610610099576000357c0100000000000000000000000000000000000000000000000000000000900463ffffffff1680633264a34b1461009e57806359a5f12d146101125780637d3f907414610167578063c51d69f414610199578063cab896dc146101c8578063d30895e4146101f1578063d4f77b1c14610246578063ea40a2a214610250578063fb81550314610265575b600080fd5b34156100a957600080fd5b6100b161027a565b604051808260036000925b818410156101025782846020020151600360200280838360005b838110156100f15780820151818401526020810190506100d6565b5050505090500192600101926100bc565b9250505091505060405180910390f35b341561011d57600080fd5b610125610333565b604051808273ffffffffffffffffffffffffffffffffffffffff1673ffffffffffffffffffffffffffffffffffffffff16815260200191505060405180910390f35b341561017257600080fd5b610197600480803560ff1690602001909190803560ff16906020019091905050610359565b005b34156101a457600080fd5b6101ac610c0f565b604051808260ff1660ff16815260200191505060405180910390f35b34156101d357600080fd5b6101db610c21565b6040518082815260200191505060405180910390f35b34156101fc57600080fd5b610204610c2d565b604051808273ffffffffffffffffffffffffffffffffffffffff1673ffffffffffffffffffffffffffffffffffffffff16815260200191505060405180910390f35b61024e610c53565b005b341561025b57600080fd5b610263610f17565b005b341561027057600080fd5b610278610f4c565b005b6102826115fe565b6001600380602002604051908101604052809291906000905b8282101561032a57838260030201600380602002604051908101604052809291908260038015610316576020028201915b8160009054906101000a900473ffffffffffffffffffffffffffffffffffffffff1673ffffffffffffffffffffffffffffffffffffffff16815260200190600101908083116102cc575b50505050508152602001906001019061029b565b50505050905090565b600b60009054906101000a900473ffffffffffffffffffffffffffffffffffffffff1681565b60008073ffffffffffffffffffffffffffffffffffffffff1660018460ff1660038110151561038457fe5b600302018360ff1660038110151561039857fe5b0160009054906101000a900473ffffffffffffffffffffffffffffffffffffffff1673ffffffffffffffffffffffffffffffffffffffff161415156103dc57600080fd5b42600f541115156103ec57600080fd5b600060029054906101000a900460ff16151561040457fe5b6000809054906101000a900460ff1660ff168360ff1610151561042357fe5b6000809054906101000a900460ff1660ff168260ff1610151561044257fe5b601060009054906101000a900473ffffffffffffffffffffffffffffffffffffffff1673ffffffffffffffffffffffffffffffffffffffff163373ffffffffffffffffffffffffffffffffffffffff1614151561049e57600080fd5b3360018460ff166003811015156104b157fe5b600302018360ff166003811015156104c557fe5b0160006101000a81548173ffffffffffffffffffffffffffffffffffffffff021916908373ffffffffffffffffffffffffffffffffffffffff1602179055506000600181819054906101000a900460ff168092919060010191906101000a81548160ff021916908360ff16021790555050600e544201600f81905550600090505b6000809054906101000a900460ff1660ff168160ff16101561066157601060009054906101000a900473ffffffffffffffffffffffffffffffffffffffff1673ffffffffffffffffffffffffffffffffffffffff1660018260ff166003811015156105ad57fe5b600302018360ff166003811015156105c157fe5b0160009054906101000a900473ffffffffffffffffffffffffffffffffffffffff1673ffffffffffffffffffffffffffffffffffffffff1614151561060557610661565b60016000809054906101000a900460ff160360ff168160ff1614156106545761064f601060009054906101000a900473ffffffffffffffffffffffffffffffffffffffff166111c7565b610c0a565b8080600101915050610546565b600090505b6000809054906101000a900460ff1660ff168160ff16101561078157601060009054906101000a900473ffffffffffffffffffffffffffffffffffffffff1673ffffffffffffffffffffffffffffffffffffffff1660018460ff166003811015156106cd57fe5b600302018260ff166003811015156106e157fe5b0160009054906101000a900473ffffffffffffffffffffffffffffffffffffffff1673ffffffffffffffffffffffffffffffffffffffff1614151561072557610781565b60016000809054906101000a900460ff160360ff168160ff1614156107745761076f601060009054906101000a900473ffffffffffffffffffffffffffffffffffffffff166111c7565b610c0a565b8080600101915050610666565b8160ff168360ff1614156108b057600090505b6000809054906101000a900460ff1660ff168160ff1610156108af57601060009054906101000a900473ffffffffffffffffffffffffffffffffffffffff1673ffffffffffffffffffffffffffffffffffffffff1660018260ff166003811015156107fb57fe5b600302018260ff1660038110151561080f57fe5b0160009054906101000a900473ffffffffffffffffffffffffffffffffffffffff1673ffffffffffffffffffffffffffffffffffffffff16141515610853576108af565b60016000809054906101000a900460ff160360ff168160ff1614156108a25761089d601060009054906101000a900473ffffffffffffffffffffffffffffffffffffffff166111c7565b610c0a565b8080600101915050610794565b5b60016000809054906101000a900460ff160360ff1682840160ff161415610a0557600090505b6000809054906101000a900460ff1660ff168160ff161015610a0457601060009054906101000a900473ffffffffffffffffffffffffffffffffffffffff1673ffffffffffffffffffffffffffffffffffffffff1660018260ff1660038110151561093d57fe5b600302018260016000809054906101000a900460ff16030360ff1660038110151561096457fe5b0160009054906101000a900473ffffffffffffffffffffffffffffffffffffffff1673ffffffffffffffffffffffffffffffffffffffff161415156109a857610a04565b60016000809054906101000a900460ff160360ff168160ff1614156109f7576109f2601060009054906101000a900473ffffffffffffffffffffffffffffffffffffffff166111c7565b610c0a565b80806001019150506108d6565b5b60026000809054906101000a900460ff160a60ff16600060019054906101000a900460ff1660ff161415610a4057610a3b611381565b610c0a565b600a60009054906101000a900473ffffffffffffffffffffffffffffffffffffffff1673ffffffffffffffffffffffffffffffffffffffff16601060009054906101000a900473ffffffffffffffffffffffffffffffffffffffff1673ffffffffffffffffffffffffffffffffffffffff161415610b2057600b60009054906101000a900473ffffffffffffffffffffffffffffffffffffffff16601060006101000a81548173ffffffffffffffffffffffffffffffffffffffff021916908373ffffffffffffffffffffffffffffffffffffffff160217905550610b84565b600a60009054906101000a900473ffffffffffffffffffffffffffffffffffffffff16601060006101000a81548173ffffffffffffffffffffffffffffffffffffffff021916908373ffffffffffffffffffffffffffffffffffffffff1602179055505b7f637351f91da430278368fb3e486c8c3da47b2e6ce4d28b2c404cb044702ca7e1601060009054906101000a900473ffffffffffffffffffffffffffffffffffffffff16604051808273ffffffffffffffffffffffffffffffffffffffff1673ffffffffffffffffffffffffffffffffffffffff16815260200191505060405180910390a15b505050565b6000809054906101000a900460ff1681565b67016345785d8a000081565b600a60009054906101000a900473ffffffffffffffffffffffffffffffffffffffff1681565b600073ffffffffffffffffffffffffffffffffffffffff16600b60009054906101000a900473ffffffffffffffffffffffffffffffffffffffff1673ffffffffffffffffffffffffffffffffffffffff16141515610cad57fe5b67016345785d8a000034141515610cc357600080fd5b6001600060026101000a81548160ff02191690831515021790555033600b60006101000a81548173ffffffffffffffffffffffffffffffffffffffff021916908373ffffffffffffffffffffffffffffffffffffffff1602179055507f31e760aa525306aba638a784082a013b6a1cc0a9a1789f3f22281c0453b10b1f600b60009054906101000a900473ffffffffffffffffffffffffffffffffffffffff16604051808273ffffffffffffffffffffffffffffffffffffffff1673ffffffffffffffffffffffffffffffffffffffff16815260200191505060405180910390a16000600243811515610db257fe5b061415610e2157600b60009054906101000a900473ffffffffffffffffffffffffffffffffffffffff16601060006101000a81548173ffffffffffffffffffffffffffffffffffffffff021916908373ffffffffffffffffffffffffffffffffffffffff160217905550610e85565b600a60009054906101000a900473ffffffffffffffffffffffffffffffffffffffff16601060006101000a81548173ffffffffffffffffffffffffffffffffffffffff021916908373ffffffffffffffffffffffffffffffffffffffff1602179055505b600e544201600f819055507f637351f91da430278368fb3e486c8c3da47b2e6ce4d28b2c404cb044702ca7e1601060009054906101000a900473ffffffffffffffffffffffffffffffffffffffff16604051808273ffffffffffffffffffffffffffffffffffffffff1673ffffffffffffffffffffffffffffffffffffffff16815260200191505060405180910390a1565b42600f54101515610f2757600080fd5b600060029054906101000a900460ff161515610f4257600080fd5b610f4a611381565b565b6000600a60009054906101000a900473ffffffffffffffffffffffffffffffffffffffff1673ffffffffffffffffffffffffffffffffffffffff163373ffffffffffffffffffffffffffffffffffffffff1614156110b6576000600c54111515610fb557600080fd5b600c5490506000600c81905550600a60009054906101000a900473ffffffffffffffffffffffffffffffffffffffff1673ffffffffffffffffffffffffffffffffffffffff166108fc829081150290604051600060405180830381858888f19350505050151561102457600080fd5b7f2a44162a2d5223e37cacacc3f626dcfee1396e0be3616534c5c7b718f786b673600a60009054906101000a900473ffffffffffffffffffffffffffffffffffffffff1682604051808373ffffffffffffffffffffffffffffffffffffffff1673ffffffffffffffffffffffffffffffffffffffff1681526020018281526020019250505060405180910390a16111c4565b6000600d541115156110c757600080fd5b600d5490506000600d81905550600b60009054906101000a900473ffffffffffffffffffffffffffffffffffffffff1673ffffffffffffffffffffffffffffffffffffffff166108fc829081150290604051600060405180830381858888f19350505050151561113657600080fd5b7f2a44162a2d5223e37cacacc3f626dcfee1396e0be3616534c5c7b718f786b673600b60009054906101000a900473ffffffffffffffffffffffffffffffffffffffff1682604051808373ffffffffffffffffffffffffffffffffffffffff1673ffffffffffffffffffffffffffffffffffffffff1681526020018281526020019250505060405180910390a15b50565b600080600060026101000a81548160ff0219169083151502179055507f8245a3876d42d9b0bdb7f24184c03fc24e3d8a079f492b1ec9ceae70b366edf982604051808273ffffffffffffffffffffffffffffffffffffffff1673ffffffffffffffffffffffffffffffffffffffff16815260200191505060405180910390a13073ffffffffffffffffffffffffffffffffffffffff16319050600115158273ffffffffffffffffffffffffffffffffffffffff166108fc839081150290604051600060405180830381858888f19350505050151514151561131157600a60009054906101000a900473ffffffffffffffffffffffffffffffffffffffff1673ffffffffffffffffffffffffffffffffffffffff168273ffffffffffffffffffffffffffffffffffffffff1614156113045780600c8190555061130c565b80600d819055505b61137d565b7f2a44162a2d5223e37cacacc3f626dcfee1396e0be3616534c5c7b718f786b6738282604051808373ffffffffffffffffffffffffffffffffffffffff1673ffffffffffffffffffffffffffffffffffffffff1681526020018281526020019250505060405180910390a15b5050565b600080600060026101000a81548160ff0219169083151502179055507f2207d46a2ba0f2acda06e9a222b40fd004e385738b3f868e63b2c0bfe4bc094c60405160405180910390a160023073ffffffffffffffffffffffffffffffffffffffff16318115156113ec57fe5b04905060001515600a60009054906101000a900473ffffffffffffffffffffffffffffffffffffffff1673ffffffffffffffffffffffffffffffffffffffff166108fc839081150290604051600060405180830381858888f19350505050151514156114675780600c600082825401925050819055506114f5565b7f2a44162a2d5223e37cacacc3f626dcfee1396e0be3616534c5c7b718f786b673600a60009054906101000a900473ffffffffffffffffffffffffffffffffffffffff1682604051808373ffffffffffffffffffffffffffffffffffffffff1673ffffffffffffffffffffffffffffffffffffffff1681526020018281526020019250505060405180910390a15b60001515600b60009054906101000a900473ffffffffffffffffffffffffffffffffffffffff1673ffffffffffffffffffffffffffffffffffffffff166108fc839081150290604051600060405180830381858888f193505050501515141561156d5780600d600082825401925050819055506115fb565b7f2a44162a2d5223e37cacacc3f626dcfee1396e0be3616534c5c7b718f786b673600b60009054906101000a900473ffffffffffffffffffffffffffffffffffffffff1682604051808373ffffffffffffffffffffffffffffffffffffffff1673ffffffffffffffffffffffffffffffffffffffff1681526020018281526020019250505060405180910390a15b50565b610120604051908101604052806003905b61161761162d565b81526020019060019003908161160f5790505090565b6060604051908101604052806003905b600073ffffffffffffffffffffffffffffffffffffffff1681526020019060019003908161163d57905050905600a165627a7a72305820cd308a43c97dab2a92b8edc65e90c88d03581730bcd05cd881397b3adb13be960029",
  "source": "pragma solidity ^0.4.18;\r\n\r\ncontract TicTacToe {\r\n    uint constant public gameCost = 0.1 ether; // 要開始遊戲必須花費0.1ether\r\n\r\n    uint8 public boardSize = 3; // 遊戲板大小\r\n\r\n    uint8 movesCounter; // 移動步數，平手時會用到\r\n\r\n    bool gameActive; // 啟動遊戲\r\n\r\n    address[3][3] board; // 遊戲板為一個3x3矩陣\r\n\r\n    address public player1;\r\n    address public player2;\r\n\r\n    uint balanceToWithdrawPlayer1; // 玩家1可以取回他的獎勵\r\n    uint balanceToWithdrawPlayer2; // 玩家2可以取回他的獎勵\r\n\r\n    uint timeToReact = 3 minutes; // 設定玩家反應時間為3分鐘\r\n    uint gameValidUntil; // 遊戲有效時間\r\n\r\n    address activePlayer; // 當前玩家\r\n\r\n    event PlayerJoined(address player);\r\n    event NextPlayer(address player);\r\n    event GameOverWithWin(address winner);\r\n    event GameOverWithDraw();\r\n    event PayoutSuccess(address receiver, uint amountInWei);\r\n\r\n    function TicTacToe() public payable {\r\n        player1 = msg.sender;\r\n        require(msg.value == gameCost); // 要開始遊戲必須要支付0.1ether\r\n        gameValidUntil = now + timeToReact;\r\n    }\r\n\r\n    function joinGame() public payable {\r\n\r\n        assert(player2 == address(0)); // 確保只有一位玩家能加入遊戲\r\n\r\n        require(msg.value == gameCost); // 要開始遊戲必須要支付0.1ether\r\n\r\n        gameActive = true; // TicTacToe必須要是2人遊戲才能開始\r\n\r\n        player2 = msg.sender;\r\n\r\n        PlayerJoined(player2); // 玩家加入時觸發的事件\r\n\r\n        if(block.number % 2 == 0) {\r\n            activePlayer = player2;\r\n        } else {\r\n            activePlayer = player1;\r\n        }\r\n\r\n        gameValidUntil = now + timeToReact;\r\n\r\n        NextPlayer(activePlayer);\r\n    }\r\n\r\n    // 取得整個遊戲板資訊\r\n    function getBoard() public view returns(address[3][3]) {\r\n        return board;\r\n    }\r\n\r\n    // 設定贏家函式\r\n    function setWinner(address player) private {\r\n        gameActive = false;\r\n\r\n        // 觸發一個事件\r\n        GameOverWithWin(player);\r\n\r\n        /*transfer money to the winner\r\n          如果使用transfer()的話，失敗會rollback整個交易\r\n        */\r\n        uint balanceToPayOut = this.balance;\r\n\r\n        if(player.send(balanceToPayOut) != true) {\r\n            if(player == player1) {\r\n                balanceToWithdrawPlayer1 = balanceToPayOut;\r\n            } else {\r\n                balanceToWithdrawPlayer2 = balanceToPayOut;\r\n            }\r\n        } else {\r\n            PayoutSuccess(player, balanceToPayOut);\r\n        }\r\n    }\r\n\r\n    function withdrawWin() public {\r\n      uint balanceToTransfer;\r\n        if(msg.sender == player1) {\r\n            require(balanceToWithdrawPlayer1 > 0); // 確認是玩家1獲勝\r\n            balanceToTransfer = balanceToWithdrawPlayer1;\r\n            balanceToWithdrawPlayer1 = 0;\r\n            player1.transfer(balanceToTransfer);\r\n\r\n            PayoutSuccess(player1, balanceToTransfer);\r\n        } else {\r\n            require(balanceToWithdrawPlayer2 > 0); // 確認是玩家2獲勝\r\n            balanceToTransfer = balanceToWithdrawPlayer2;\r\n            balanceToWithdrawPlayer2 = 0;\r\n            player2.transfer(balanceToTransfer);\r\n\r\n            PayoutSuccess(player2, balanceToTransfer);\r\n        }\r\n    }\r\n\r\n    // 設定平手函式\r\n    function setDraw() private {\r\n        gameActive = false;\r\n        GameOverWithDraw();\r\n\r\n        uint balanceToPayOut = this.balance/2;\r\n\r\n        if(player1.send(balanceToPayOut) == false) {\r\n            balanceToWithdrawPlayer1 += balanceToPayOut;\r\n        } else {\r\n            PayoutSuccess(player1, balanceToPayOut);\r\n        }\r\n        if(player2.send(balanceToPayOut) == false) {\r\n            balanceToWithdrawPlayer2 += balanceToPayOut;\r\n        } else {\r\n            PayoutSuccess(player2, balanceToPayOut);\r\n        }\r\n\r\n    }\r\n\r\n    // 當有一個玩家中途退出時，另一位可以取回其0.1ether\r\n    function emergecyCashout() public {\r\n        require(gameValidUntil < now);\r\n        require(gameActive);\r\n        setDraw();\r\n    }\r\n\r\n\r\n    function setStone(uint8 x, uint8 y) public {\r\n\r\n        require(board[x][y] == address(0)); // 確保遊戲板上每個格子只能下一次\r\n\r\n        require(gameValidUntil > now); // 確保遊戲有效時間\r\n\r\n        assert(gameActive);\r\n\r\n        assert(x < boardSize); // 選擇x和y時不能超過遊戲板大小\r\n        assert(y < boardSize); // 選擇x和y時不能超過遊戲板大小\r\n\r\n        require(msg.sender == activePlayer); // 必須要是當前玩家才能下\r\n\r\n        board[x][y] = msg.sender;\r\n        movesCounter++;\r\n        gameValidUntil = now + timeToReact;\r\n\r\n        // 1. 判斷行有無連線\r\n        for(uint8 i = 0; i < boardSize; i++) {\r\n            if(board[i][y] != activePlayer) {\r\n                break;\r\n            }\r\n            //win\r\n            if(i == boardSize - 1) {\r\n                //winner\r\n                setWinner(activePlayer);\r\n                return;\r\n            }\r\n        }\r\n\r\n        // 2. 判斷列有無連線\r\n        for(i = 0; i < boardSize; i++) {\r\n            if(board[x][i] != activePlayer) {\r\n                break;\r\n            }\r\n            //win\r\n            if(i == boardSize - 1) {\r\n                //winner\r\n                setWinner(activePlayer);\r\n                return;\r\n            }\r\n        }\r\n\r\n        // 3. 判斷對角線有無連線\r\n        if(x == y) {\r\n            for(i = 0; i < boardSize; i++) {\r\n                if(board[i][i] != activePlayer) {\r\n                    break;\r\n                }\r\n                //win\r\n                if(i == boardSize - 1) {\r\n                    //winner\r\n                    setWinner(activePlayer);\r\n                    return;\r\n                }\r\n            }\r\n        }\r\n\r\n        // 4. 判斷反對角線有無連線\r\n        if((x+y) == boardSize-1) {\r\n            for(i = 0; i < boardSize; i++) {\r\n                if(board[i][(boardSize-1)-i] != activePlayer) {\r\n                    break;\r\n                }\r\n                //win\r\n                if(i == boardSize - 1) {\r\n                    //winner\r\n                    setWinner(activePlayer);\r\n                    return;\r\n                }\r\n            }\r\n        }\r\n\r\n        // 判斷平手的情況\r\n        if(movesCounter == (boardSize**2)) {\r\n            //draw\r\n            setDraw();\r\n            return;\r\n        }\r\n\r\n        // 當前玩家最後要換人\r\n        if(activePlayer == player1) {\r\n            activePlayer = player2;\r\n        } else {\r\n            activePlayer = player1;\r\n        }\r\n\r\n        NextPlayer(activePlayer); // 觸發下一位玩家的事件\r\n    }\r\n}\r\n",
  "sourcePath": "D:\\eth_truffle\\contracts\\TicTacToe.sol",
  "compiler": {
    "name": "solc",
    "version": "0.4.18+commit.9cf6e910.Emscripten.clang"
  },
  "schemaVersion": "1.0.1",
  "updatedAt": "2019-01-28T04:11:47.145Z"
}